{
	"contracts/Module1.sol": {
		"Module1": {
			"abi": [
				{
					"inputs": [
						{
							"internalType": "uint256",
							"name": "a",
							"type": "uint256"
						},
						{
							"internalType": "uint256",
							"name": "b",
							"type": "uint256"
						}
					],
					"name": "divide",
					"outputs": [
						{
							"internalType": "uint256",
							"name": "",
							"type": "uint256"
						}
					],
					"stateMutability": "pure",
					"type": "function"
				}
			],
			"devdoc": {
				"kind": "dev",
				"methods": {},
				"version": 1
			},
			"evm": {
				"assembly": "    /* \"contracts/Module1.sol\":62:374  contract Module1 {... */\n  mstore(0x40, 0x80)\n  callvalue\n  dup1\n  iszero\n  tag_1\n  jumpi\n  0x00\n  dup1\n  revert\ntag_1:\n  pop\n  dataSize(sub_0)\n  dup1\n  dataOffset(sub_0)\n  0x00\n  codecopy\n  0x00\n  return\nstop\n\nsub_0: assembly {\n        /* \"contracts/Module1.sol\":62:374  contract Module1 {... */\n      mstore(0x40, 0x80)\n      callvalue\n      dup1\n      iszero\n      tag_1\n      jumpi\n      0x00\n      dup1\n      revert\n    tag_1:\n      pop\n      jumpi(tag_2, lt(calldatasize, 0x04))\n      shr(0xe0, calldataload(0x00))\n      dup1\n      0xf88e9fbf\n      eq\n      tag_3\n      jumpi\n    tag_2:\n      0x00\n      dup1\n      revert\n        /* \"contracts/Module1.sol\":88:369  function divide(uint256 a, uint256 b) public pure returns (uint256) {... */\n    tag_3:\n      tag_4\n      0x04\n      dup1\n      calldatasize\n      sub\n      dup2\n      add\n      swap1\n      tag_5\n      swap2\n      swap1\n      tag_6\n      jump\t// in\n    tag_5:\n      tag_7\n      jump\t// in\n    tag_4:\n      mload(0x40)\n      tag_8\n      swap2\n      swap1\n      tag_9\n      jump\t// in\n    tag_8:\n      mload(0x40)\n      dup1\n      swap2\n      sub\n      swap1\n      return\n    tag_7:\n        /* \"contracts/Module1.sol\":147:154  uint256 */\n      0x00\n        /* \"contracts/Module1.sol\":186:187  0 */\n      dup1\n        /* \"contracts/Module1.sol\":181:182  b */\n      dup3\n        /* \"contracts/Module1.sol\":181:187  b != 0 */\n      sub\n        /* \"contracts/Module1.sol\":173:214  require(b != 0, \"Divisor cannot be zero\") */\n      tag_11\n      jumpi\n      mload(0x40)\n      0x08c379a000000000000000000000000000000000000000000000000000000000\n      dup2\n      mstore\n      0x04\n      add\n      tag_12\n      swap1\n      tag_13\n      jump\t// in\n    tag_12:\n      mload(0x40)\n      dup1\n      swap2\n      sub\n      swap1\n      revert\n    tag_11:\n        /* \"contracts/Module1.sol\":223:237  uint256 result */\n      0x00\n        /* \"contracts/Module1.sol\":244:245  b */\n      dup3\n        /* \"contracts/Module1.sol\":240:241  a */\n      dup5\n        /* \"contracts/Module1.sol\":240:245  a / b */\n      tag_14\n      swap2\n      swap1\n      tag_15\n      jump\t// in\n    tag_14:\n        /* \"contracts/Module1.sol\":223:245  uint256 result = a / b */\n      swap1\n      pop\n        /* \"contracts/Module1.sol\":269:271  10 */\n      0x0a\n        /* \"contracts/Module1.sol\":259:265  result */\n      dup2\n        /* \"contracts/Module1.sol\":259:271  result >= 10 */\n      lt\n      iszero\n        /* \"contracts/Module1.sol\":252:272  assert(result >= 10) */\n      tag_16\n      jumpi\n      tag_17\n      tag_18\n      jump\t// in\n    tag_17:\n    tag_16:\n        /* \"contracts/Module1.sol\":292:295  100 */\n      0x64\n        /* \"contracts/Module1.sol\":283:289  result */\n      dup2\n        /* \"contracts/Module1.sol\":283:295  result > 100 */\n      gt\n        /* \"contracts/Module1.sol\":279:346  if (result > 100) {... */\n      iszero\n      tag_19\n      jumpi\n        /* \"contracts/Module1.sol\":308:338  revert(\"Result exceeds limit\") */\n      mload(0x40)\n      0x08c379a000000000000000000000000000000000000000000000000000000000\n      dup2\n      mstore\n      0x04\n      add\n      tag_20\n      swap1\n      tag_21\n      jump\t// in\n    tag_20:\n      mload(0x40)\n      dup1\n      swap2\n      sub\n      swap1\n      revert\n        /* \"contracts/Module1.sol\":279:346  if (result > 100) {... */\n    tag_19:\n        /* \"contracts/Module1.sol\":359:365  result */\n      dup1\n        /* \"contracts/Module1.sol\":352:365  return result */\n      swap2\n      pop\n      pop\n        /* \"contracts/Module1.sol\":88:369  function divide(uint256 a, uint256 b) public pure returns (uint256) {... */\n      swap3\n      swap2\n      pop\n      pop\n      jump\t// out\n        /* \"#utility.yul\":88:205   */\n    tag_23:\n        /* \"#utility.yul\":197:198   */\n      0x00\n        /* \"#utility.yul\":194:195   */\n      dup1\n        /* \"#utility.yul\":187:199   */\n      revert\n        /* \"#utility.yul\":334:411   */\n    tag_25:\n        /* \"#utility.yul\":371:378   */\n      0x00\n        /* \"#utility.yul\":400:405   */\n      dup2\n        /* \"#utility.yul\":389:405   */\n      swap1\n      pop\n        /* \"#utility.yul\":334:411   */\n      swap2\n      swap1\n      pop\n      jump\t// out\n        /* \"#utility.yul\":417:539   */\n    tag_26:\n        /* \"#utility.yul\":490:514   */\n      tag_42\n        /* \"#utility.yul\":508:513   */\n      dup2\n        /* \"#utility.yul\":490:514   */\n      tag_25\n      jump\t// in\n    tag_42:\n        /* \"#utility.yul\":483:488   */\n      dup2\n        /* \"#utility.yul\":480:515   */\n      eq\n        /* \"#utility.yul\":470:533   */\n      tag_43\n      jumpi\n        /* \"#utility.yul\":529:530   */\n      0x00\n        /* \"#utility.yul\":526:527   */\n      dup1\n        /* \"#utility.yul\":519:531   */\n      revert\n        /* \"#utility.yul\":470:533   */\n    tag_43:\n        /* \"#utility.yul\":417:539   */\n      pop\n      jump\t// out\n        /* \"#utility.yul\":545:684   */\n    tag_27:\n        /* \"#utility.yul\":591:596   */\n      0x00\n        /* \"#utility.yul\":629:635   */\n      dup2\n        /* \"#utility.yul\":616:636   */\n      calldataload\n        /* \"#utility.yul\":607:636   */\n      swap1\n      pop\n        /* \"#utility.yul\":645:678   */\n      tag_45\n        /* \"#utility.yul\":672:677   */\n      dup2\n        /* \"#utility.yul\":645:678   */\n      tag_26\n      jump\t// in\n    tag_45:\n        /* \"#utility.yul\":545:684   */\n      swap3\n      swap2\n      pop\n      pop\n      jump\t// out\n        /* \"#utility.yul\":690:1164   */\n    tag_6:\n        /* \"#utility.yul\":758:764   */\n      0x00\n        /* \"#utility.yul\":766:772   */\n      dup1\n        /* \"#utility.yul\":815:817   */\n      0x40\n        /* \"#utility.yul\":803:812   */\n      dup4\n        /* \"#utility.yul\":794:801   */\n      dup6\n        /* \"#utility.yul\":790:813   */\n      sub\n        /* \"#utility.yul\":786:818   */\n      slt\n        /* \"#utility.yul\":783:902   */\n      iszero\n      tag_47\n      jumpi\n        /* \"#utility.yul\":821:900   */\n      tag_48\n      tag_23\n      jump\t// in\n    tag_48:\n        /* \"#utility.yul\":783:902   */\n    tag_47:\n        /* \"#utility.yul\":941:942   */\n      0x00\n        /* \"#utility.yul\":966:1019   */\n      tag_49\n        /* \"#utility.yul\":1011:1018   */\n      dup6\n        /* \"#utility.yul\":1002:1008   */\n      dup3\n        /* \"#utility.yul\":991:1000   */\n      dup7\n        /* \"#utility.yul\":987:1009   */\n      add\n        /* \"#utility.yul\":966:1019   */\n      tag_27\n      jump\t// in\n    tag_49:\n        /* \"#utility.yul\":956:1019   */\n      swap3\n      pop\n        /* \"#utility.yul\":912:1029   */\n      pop\n        /* \"#utility.yul\":1068:1070   */\n      0x20\n        /* \"#utility.yul\":1094:1147   */\n      tag_50\n        /* \"#utility.yul\":1139:1146   */\n      dup6\n        /* \"#utility.yul\":1130:1136   */\n      dup3\n        /* \"#utility.yul\":1119:1128   */\n      dup7\n        /* \"#utility.yul\":1115:1137   */\n      add\n        /* \"#utility.yul\":1094:1147   */\n      tag_27\n      jump\t// in\n    tag_50:\n        /* \"#utility.yul\":1084:1147   */\n      swap2\n      pop\n        /* \"#utility.yul\":1039:1157   */\n      pop\n        /* \"#utility.yul\":690:1164   */\n      swap3\n      pop\n      swap3\n      swap1\n      pop\n      jump\t// out\n        /* \"#utility.yul\":1170:1288   */\n    tag_28:\n        /* \"#utility.yul\":1257:1281   */\n      tag_52\n        /* \"#utility.yul\":1275:1280   */\n      dup2\n        /* \"#utility.yul\":1257:1281   */\n      tag_25\n      jump\t// in\n    tag_52:\n        /* \"#utility.yul\":1252:1255   */\n      dup3\n        /* \"#utility.yul\":1245:1282   */\n      mstore\n        /* \"#utility.yul\":1170:1288   */\n      pop\n      pop\n      jump\t// out\n        /* \"#utility.yul\":1294:1516   */\n    tag_9:\n        /* \"#utility.yul\":1387:1391   */\n      0x00\n        /* \"#utility.yul\":1425:1427   */\n      0x20\n        /* \"#utility.yul\":1414:1423   */\n      dup3\n        /* \"#utility.yul\":1410:1428   */\n      add\n        /* \"#utility.yul\":1402:1428   */\n      swap1\n      pop\n        /* \"#utility.yul\":1438:1509   */\n      tag_54\n        /* \"#utility.yul\":1506:1507   */\n      0x00\n        /* \"#utility.yul\":1495:1504   */\n      dup4\n        /* \"#utility.yul\":1491:1508   */\n      add\n        /* \"#utility.yul\":1482:1488   */\n      dup5\n        /* \"#utility.yul\":1438:1509   */\n      tag_28\n      jump\t// in\n    tag_54:\n        /* \"#utility.yul\":1294:1516   */\n      swap3\n      swap2\n      pop\n      pop\n      jump\t// out\n        /* \"#utility.yul\":1522:1691   */\n    tag_29:\n        /* \"#utility.yul\":1606:1617   */\n      0x00\n        /* \"#utility.yul\":1640:1646   */\n      dup3\n        /* \"#utility.yul\":1635:1638   */\n      dup3\n        /* \"#utility.yul\":1628:1647   */\n      mstore\n        /* \"#utility.yul\":1680:1684   */\n      0x20\n        /* \"#utility.yul\":1675:1678   */\n      dup3\n        /* \"#utility.yul\":1671:1685   */\n      add\n        /* \"#utility.yul\":1656:1685   */\n      swap1\n      pop\n        /* \"#utility.yul\":1522:1691   */\n      swap3\n      swap2\n      pop\n      pop\n      jump\t// out\n        /* \"#utility.yul\":1697:1869   */\n    tag_30:\n        /* \"#utility.yul\":1837:1861   */\n      0x44697669736f722063616e6e6f74206265207a65726f00000000000000000000\n        /* \"#utility.yul\":1833:1834   */\n      0x00\n        /* \"#utility.yul\":1825:1831   */\n      dup3\n        /* \"#utility.yul\":1821:1835   */\n      add\n        /* \"#utility.yul\":1814:1862   */\n      mstore\n        /* \"#utility.yul\":1697:1869   */\n      pop\n      jump\t// out\n        /* \"#utility.yul\":1875:2241   */\n    tag_31:\n        /* \"#utility.yul\":2017:2020   */\n      0x00\n        /* \"#utility.yul\":2038:2105   */\n      tag_58\n        /* \"#utility.yul\":2102:2104   */\n      0x16\n        /* \"#utility.yul\":2097:2100   */\n      dup4\n        /* \"#utility.yul\":2038:2105   */\n      tag_29\n      jump\t// in\n    tag_58:\n        /* \"#utility.yul\":2031:2105   */\n      swap2\n      pop\n        /* \"#utility.yul\":2114:2207   */\n      tag_59\n        /* \"#utility.yul\":2203:2206   */\n      dup3\n        /* \"#utility.yul\":2114:2207   */\n      tag_30\n      jump\t// in\n    tag_59:\n        /* \"#utility.yul\":2232:2234   */\n      0x20\n        /* \"#utility.yul\":2227:2230   */\n      dup3\n        /* \"#utility.yul\":2223:2235   */\n      add\n        /* \"#utility.yul\":2216:2235   */\n      swap1\n      pop\n        /* \"#utility.yul\":1875:2241   */\n      swap2\n      swap1\n      pop\n      jump\t// out\n        /* \"#utility.yul\":2247:2666   */\n    tag_13:\n        /* \"#utility.yul\":2413:2417   */\n      0x00\n        /* \"#utility.yul\":2451:2453   */\n      0x20\n        /* \"#utility.yul\":2440:2449   */\n      dup3\n        /* \"#utility.yul\":2436:2454   */\n      add\n        /* \"#utility.yul\":2428:2454   */\n      swap1\n      pop\n        /* \"#utility.yul\":2500:2509   */\n      dup2\n        /* \"#utility.yul\":2494:2498   */\n      dup2\n        /* \"#utility.yul\":2490:2510   */\n      sub\n        /* \"#utility.yul\":2486:2487   */\n      0x00\n        /* \"#utility.yul\":2475:2484   */\n      dup4\n        /* \"#utility.yul\":2471:2488   */\n      add\n        /* \"#utility.yul\":2464:2511   */\n      mstore\n        /* \"#utility.yul\":2528:2659   */\n      tag_61\n        /* \"#utility.yul\":2654:2658   */\n      dup2\n        /* \"#utility.yul\":2528:2659   */\n      tag_31\n      jump\t// in\n    tag_61:\n        /* \"#utility.yul\":2520:2659   */\n      swap1\n      pop\n        /* \"#utility.yul\":2247:2666   */\n      swap2\n      swap1\n      pop\n      jump\t// out\n        /* \"#utility.yul\":2672:2852   */\n    tag_32:\n        /* \"#utility.yul\":2720:2797   */\n      0x4e487b7100000000000000000000000000000000000000000000000000000000\n        /* \"#utility.yul\":2717:2718   */\n      0x00\n        /* \"#utility.yul\":2710:2798   */\n      mstore\n        /* \"#utility.yul\":2817:2821   */\n      0x12\n        /* \"#utility.yul\":2814:2815   */\n      0x04\n        /* \"#utility.yul\":2807:2822   */\n      mstore\n        /* \"#utility.yul\":2841:2845   */\n      0x24\n        /* \"#utility.yul\":2838:2839   */\n      0x00\n        /* \"#utility.yul\":2831:2846   */\n      revert\n        /* \"#utility.yul\":3044:3229   */\n    tag_15:\n        /* \"#utility.yul\":3084:3085   */\n      0x00\n        /* \"#utility.yul\":3101:3121   */\n      tag_65\n        /* \"#utility.yul\":3119:3120   */\n      dup3\n        /* \"#utility.yul\":3101:3121   */\n      tag_25\n      jump\t// in\n    tag_65:\n        /* \"#utility.yul\":3096:3121   */\n      swap2\n      pop\n        /* \"#utility.yul\":3135:3155   */\n      tag_66\n        /* \"#utility.yul\":3153:3154   */\n      dup4\n        /* \"#utility.yul\":3135:3155   */\n      tag_25\n      jump\t// in\n    tag_66:\n        /* \"#utility.yul\":3130:3155   */\n      swap3\n      pop\n        /* \"#utility.yul\":3174:3175   */\n      dup3\n        /* \"#utility.yul\":3164:3199   */\n      tag_67\n      jumpi\n        /* \"#utility.yul\":3179:3197   */\n      tag_68\n      tag_32\n      jump\t// in\n    tag_68:\n        /* \"#utility.yul\":3164:3199   */\n    tag_67:\n        /* \"#utility.yul\":3221:3222   */\n      dup3\n        /* \"#utility.yul\":3218:3219   */\n      dup3\n        /* \"#utility.yul\":3214:3223   */\n      div\n        /* \"#utility.yul\":3209:3223   */\n      swap1\n      pop\n        /* \"#utility.yul\":3044:3229   */\n      swap3\n      swap2\n      pop\n      pop\n      jump\t// out\n        /* \"#utility.yul\":3235:3415   */\n    tag_18:\n        /* \"#utility.yul\":3283:3360   */\n      0x4e487b7100000000000000000000000000000000000000000000000000000000\n        /* \"#utility.yul\":3280:3281   */\n      0x00\n        /* \"#utility.yul\":3273:3361   */\n      mstore\n        /* \"#utility.yul\":3380:3384   */\n      0x01\n        /* \"#utility.yul\":3377:3378   */\n      0x04\n        /* \"#utility.yul\":3370:3385   */\n      mstore\n        /* \"#utility.yul\":3404:3408   */\n      0x24\n        /* \"#utility.yul\":3401:3402   */\n      0x00\n        /* \"#utility.yul\":3394:3409   */\n      revert\n        /* \"#utility.yul\":3421:3591   */\n    tag_34:\n        /* \"#utility.yul\":3561:3583   */\n      0x526573756c742065786365656473206c696d6974000000000000000000000000\n        /* \"#utility.yul\":3557:3558   */\n      0x00\n        /* \"#utility.yul\":3549:3555   */\n      dup3\n        /* \"#utility.yul\":3545:3559   */\n      add\n        /* \"#utility.yul\":3538:3584   */\n      mstore\n        /* \"#utility.yul\":3421:3591   */\n      pop\n      jump\t// out\n        /* \"#utility.yul\":3597:3963   */\n    tag_35:\n        /* \"#utility.yul\":3739:3742   */\n      0x00\n        /* \"#utility.yul\":3760:3827   */\n      tag_72\n        /* \"#utility.yul\":3824:3826   */\n      0x14\n        /* \"#utility.yul\":3819:3822   */\n      dup4\n        /* \"#utility.yul\":3760:3827   */\n      tag_29\n      jump\t// in\n    tag_72:\n        /* \"#utility.yul\":3753:3827   */\n      swap2\n      pop\n        /* \"#utility.yul\":3836:3929   */\n      tag_73\n        /* \"#utility.yul\":3925:3928   */\n      dup3\n        /* \"#utility.yul\":3836:3929   */\n      tag_34\n      jump\t// in\n    tag_73:\n        /* \"#utility.yul\":3954:3956   */\n      0x20\n        /* \"#utility.yul\":3949:3952   */\n      dup3\n        /* \"#utility.yul\":3945:3957   */\n      add\n        /* \"#utility.yul\":3938:3957   */\n      swap1\n      pop\n        /* \"#utility.yul\":3597:3963   */\n      swap2\n      swap1\n      pop\n      jump\t// out\n        /* \"#utility.yul\":3969:4388   */\n    tag_21:\n        /* \"#utility.yul\":4135:4139   */\n      0x00\n        /* \"#utility.yul\":4173:4175   */\n      0x20\n        /* \"#utility.yul\":4162:4171   */\n      dup3\n        /* \"#utility.yul\":4158:4176   */\n      add\n        /* \"#utility.yul\":4150:4176   */\n      swap1\n      pop\n        /* \"#utility.yul\":4222:4231   */\n      dup2\n        /* \"#utility.yul\":4216:4220   */\n      dup2\n        /* \"#utility.yul\":4212:4232   */\n      sub\n        /* \"#utility.yul\":4208:4209   */\n      0x00\n        /* \"#utility.yul\":4197:4206   */\n      dup4\n        /* \"#utility.yul\":4193:4210   */\n      add\n        /* \"#utility.yul\":4186:4233   */\n      mstore\n        /* \"#utility.yul\":4250:4381   */\n      tag_75\n        /* \"#utility.yul\":4376:4380   */\n      dup2\n        /* \"#utility.yul\":4250:4381   */\n      tag_35\n      jump\t// in\n    tag_75:\n        /* \"#utility.yul\":4242:4381   */\n      swap1\n      pop\n        /* \"#utility.yul\":3969:4388   */\n      swap2\n      swap1\n      pop\n      jump\t// out\n\n    auxdata: 0xa26469706673582212203eae105d2452cec5f6758e703a53d7a20046737891e03bccab2eeeddd8f3aa0c64736f6c63430008120033\n}\n",
				"bytecode": {
					"linkReferences": {},
					"object": "608060405234801561001057600080fd5b50610367806100206000396000f3fe608060405234801561001057600080fd5b506004361061002b5760003560e01c8063f88e9fbf14610030575b600080fd5b61004a6004803603810190610045919061014f565b610060565b604051610057919061019e565b60405180910390f35b60008082036100a4576040517f08c379a000000000000000000000000000000000000000000000000000000000815260040161009b90610216565b60405180910390fd5b600082846100b29190610265565b9050600a8110156100c6576100c5610296565b5b606481111561010a576040517f08c379a000000000000000000000000000000000000000000000000000000000815260040161010190610311565b60405180910390fd5b8091505092915050565b600080fd5b6000819050919050565b61012c81610119565b811461013757600080fd5b50565b60008135905061014981610123565b92915050565b6000806040838503121561016657610165610114565b5b60006101748582860161013a565b92505060206101858582860161013a565b9150509250929050565b61019881610119565b82525050565b60006020820190506101b3600083018461018f565b92915050565b600082825260208201905092915050565b7f44697669736f722063616e6e6f74206265207a65726f00000000000000000000600082015250565b60006102006016836101b9565b915061020b826101ca565b602082019050919050565b6000602082019050818103600083015261022f816101f3565b9050919050565b7f4e487b7100000000000000000000000000000000000000000000000000000000600052601260045260246000fd5b600061027082610119565b915061027b83610119565b92508261028b5761028a610236565b5b828204905092915050565b7f4e487b7100000000000000000000000000000000000000000000000000000000600052600160045260246000fd5b7f526573756c742065786365656473206c696d6974000000000000000000000000600082015250565b60006102fb6014836101b9565b9150610306826102c5565b602082019050919050565b6000602082019050818103600083015261032a816102ee565b905091905056fea26469706673582212203eae105d2452cec5f6758e703a53d7a20046737891e03bccab2eeeddd8f3aa0c64736f6c63430008120033",
					"opcodes": "PUSH1 0x80 PUSH1 0x40 MSTORE CALLVALUE DUP1 ISZERO PUSH2 0x10 JUMPI PUSH1 0x0 DUP1 REVERT JUMPDEST POP PUSH2 0x367 DUP1 PUSH2 0x20 PUSH1 0x0 CODECOPY PUSH1 0x0 RETURN INVALID PUSH1 0x80 PUSH1 0x40 MSTORE CALLVALUE DUP1 ISZERO PUSH2 0x10 JUMPI PUSH1 0x0 DUP1 REVERT JUMPDEST POP PUSH1 0x4 CALLDATASIZE LT PUSH2 0x2B JUMPI PUSH1 0x0 CALLDATALOAD PUSH1 0xE0 SHR DUP1 PUSH4 0xF88E9FBF EQ PUSH2 0x30 JUMPI JUMPDEST PUSH1 0x0 DUP1 REVERT JUMPDEST PUSH2 0x4A PUSH1 0x4 DUP1 CALLDATASIZE SUB DUP2 ADD SWAP1 PUSH2 0x45 SWAP2 SWAP1 PUSH2 0x14F JUMP JUMPDEST PUSH2 0x60 JUMP JUMPDEST PUSH1 0x40 MLOAD PUSH2 0x57 SWAP2 SWAP1 PUSH2 0x19E JUMP JUMPDEST PUSH1 0x40 MLOAD DUP1 SWAP2 SUB SWAP1 RETURN JUMPDEST PUSH1 0x0 DUP1 DUP3 SUB PUSH2 0xA4 JUMPI PUSH1 0x40 MLOAD PUSH32 0x8C379A000000000000000000000000000000000000000000000000000000000 DUP2 MSTORE PUSH1 0x4 ADD PUSH2 0x9B SWAP1 PUSH2 0x216 JUMP JUMPDEST PUSH1 0x40 MLOAD DUP1 SWAP2 SUB SWAP1 REVERT JUMPDEST PUSH1 0x0 DUP3 DUP5 PUSH2 0xB2 SWAP2 SWAP1 PUSH2 0x265 JUMP JUMPDEST SWAP1 POP PUSH1 0xA DUP2 LT ISZERO PUSH2 0xC6 JUMPI PUSH2 0xC5 PUSH2 0x296 JUMP JUMPDEST JUMPDEST PUSH1 0x64 DUP2 GT ISZERO PUSH2 0x10A JUMPI PUSH1 0x40 MLOAD PUSH32 0x8C379A000000000000000000000000000000000000000000000000000000000 DUP2 MSTORE PUSH1 0x4 ADD PUSH2 0x101 SWAP1 PUSH2 0x311 JUMP JUMPDEST PUSH1 0x40 MLOAD DUP1 SWAP2 SUB SWAP1 REVERT JUMPDEST DUP1 SWAP2 POP POP SWAP3 SWAP2 POP POP JUMP JUMPDEST PUSH1 0x0 DUP1 REVERT JUMPDEST PUSH1 0x0 DUP2 SWAP1 POP SWAP2 SWAP1 POP JUMP JUMPDEST PUSH2 0x12C DUP2 PUSH2 0x119 JUMP JUMPDEST DUP2 EQ PUSH2 0x137 JUMPI PUSH1 0x0 DUP1 REVERT JUMPDEST POP JUMP JUMPDEST PUSH1 0x0 DUP2 CALLDATALOAD SWAP1 POP PUSH2 0x149 DUP2 PUSH2 0x123 JUMP JUMPDEST SWAP3 SWAP2 POP POP JUMP JUMPDEST PUSH1 0x0 DUP1 PUSH1 0x40 DUP4 DUP6 SUB SLT ISZERO PUSH2 0x166 JUMPI PUSH2 0x165 PUSH2 0x114 JUMP JUMPDEST JUMPDEST PUSH1 0x0 PUSH2 0x174 DUP6 DUP3 DUP7 ADD PUSH2 0x13A JUMP JUMPDEST SWAP3 POP POP PUSH1 0x20 PUSH2 0x185 DUP6 DUP3 DUP7 ADD PUSH2 0x13A JUMP JUMPDEST SWAP2 POP POP SWAP3 POP SWAP3 SWAP1 POP JUMP JUMPDEST PUSH2 0x198 DUP2 PUSH2 0x119 JUMP JUMPDEST DUP3 MSTORE POP POP JUMP JUMPDEST PUSH1 0x0 PUSH1 0x20 DUP3 ADD SWAP1 POP PUSH2 0x1B3 PUSH1 0x0 DUP4 ADD DUP5 PUSH2 0x18F JUMP JUMPDEST SWAP3 SWAP2 POP POP JUMP JUMPDEST PUSH1 0x0 DUP3 DUP3 MSTORE PUSH1 0x20 DUP3 ADD SWAP1 POP SWAP3 SWAP2 POP POP JUMP JUMPDEST PUSH32 0x44697669736F722063616E6E6F74206265207A65726F00000000000000000000 PUSH1 0x0 DUP3 ADD MSTORE POP JUMP JUMPDEST PUSH1 0x0 PUSH2 0x200 PUSH1 0x16 DUP4 PUSH2 0x1B9 JUMP JUMPDEST SWAP2 POP PUSH2 0x20B DUP3 PUSH2 0x1CA JUMP JUMPDEST PUSH1 0x20 DUP3 ADD SWAP1 POP SWAP2 SWAP1 POP JUMP JUMPDEST PUSH1 0x0 PUSH1 0x20 DUP3 ADD SWAP1 POP DUP2 DUP2 SUB PUSH1 0x0 DUP4 ADD MSTORE PUSH2 0x22F DUP2 PUSH2 0x1F3 JUMP JUMPDEST SWAP1 POP SWAP2 SWAP1 POP JUMP JUMPDEST PUSH32 0x4E487B7100000000000000000000000000000000000000000000000000000000 PUSH1 0x0 MSTORE PUSH1 0x12 PUSH1 0x4 MSTORE PUSH1 0x24 PUSH1 0x0 REVERT JUMPDEST PUSH1 0x0 PUSH2 0x270 DUP3 PUSH2 0x119 JUMP JUMPDEST SWAP2 POP PUSH2 0x27B DUP4 PUSH2 0x119 JUMP JUMPDEST SWAP3 POP DUP3 PUSH2 0x28B JUMPI PUSH2 0x28A PUSH2 0x236 JUMP JUMPDEST JUMPDEST DUP3 DUP3 DIV SWAP1 POP SWAP3 SWAP2 POP POP JUMP JUMPDEST PUSH32 0x4E487B7100000000000000000000000000000000000000000000000000000000 PUSH1 0x0 MSTORE PUSH1 0x1 PUSH1 0x4 MSTORE PUSH1 0x24 PUSH1 0x0 REVERT JUMPDEST PUSH32 0x526573756C742065786365656473206C696D6974000000000000000000000000 PUSH1 0x0 DUP3 ADD MSTORE POP JUMP JUMPDEST PUSH1 0x0 PUSH2 0x2FB PUSH1 0x14 DUP4 PUSH2 0x1B9 JUMP JUMPDEST SWAP2 POP PUSH2 0x306 DUP3 PUSH2 0x2C5 JUMP JUMPDEST PUSH1 0x20 DUP3 ADD SWAP1 POP SWAP2 SWAP1 POP JUMP JUMPDEST PUSH1 0x0 PUSH1 0x20 DUP3 ADD SWAP1 POP DUP2 DUP2 SUB PUSH1 0x0 DUP4 ADD MSTORE PUSH2 0x32A DUP2 PUSH2 0x2EE JUMP JUMPDEST SWAP1 POP SWAP2 SWAP1 POP JUMP INVALID LOG2 PUSH5 0x6970667358 0x22 SLT KECCAK256 RETURNDATACOPY 0xAE LT 0x5D 0x24 MSTORE 0xCE 0xC5 0xF6 PUSH22 0x8E703A53D7A20046737891E03BCCAB2EEEDDD8F3AA0C PUSH5 0x736F6C6343 STOP ADDMOD SLT STOP CALLER "
				},
				"gasEstimates": {
					"creation": {
						"codeDepositCost": "174200",
						"executionCost": "220",
						"totalCost": "174420"
					},
					"external": {
						"divide(uint256,uint256)": "infinite"
					}
				},
				"methodIdentifiers": {
					"divide(uint256,uint256)": "f88e9fbf"
				}
			},
			"storageLayout": {
				"storage": [],
				"types": null
			},
			"userdoc": {
				"kind": "user",
				"methods": {},
				"version": 1
			}
		}
	}
}